:060000000A128A11EA2F2A
:10060C00043400348312031306108610061186116D
:10061C0008008312031306128612061386130800B1
:10062C008312031307108710071187110800831218
:10063C000313071287120713871308000A128A1173
:10064C0008230A128A110A128A110F230A128A111C
:10065C000A128A1116230A128A110A128A111D23F0
:10066C0008008312031305140D30F200AF30F100B3
:10067C00B630F000F00B402BF10B402BF20B402B63
:10068C0000008312031305100800F401F201F301BA
:10069C0070087104031D622B27307302103003198C
:1006AC0072020318602B0130F2070318F30A0030B2
:1006BC00F3074E2BF401F40A74080800FF30FC0712
:1006CC000318FD0AFF30FD077D08803AFF008030DB
:1006DC007F02031D732B01307C020318792B04302D
:1006EC00FC000030FD000B30F2002630F1005D30D4
:1006FC00F000F00B7F2BF10B7F2BF20B7F2B862B5B
:10070C0008000130FC070318FD0A0030FD077D08C6
:10071C00803AFF0080307F02031D962B05307C024F
:10072C00031C9C2B0130FC000030FD000B30F20050
:10073C002630F1005D30F000F00BA22BF10BA22B58
:10074C00F20BA22BA92B080004307C067D04031DA0
:10075C00B12BFF30BE2B03307C067D04031DB82B60
:10076C00F630BE2B02307C067D04031DC52BC43035
:10077C0083120313A6070318A70AFF30D02B7C03A0
:10078C007D04031DD12BA83083120313A607031875
:10079C00A70AFD30A7070930FB00E130FA00B230A0
:1007AC00F900F90BD72BFA0BD72BFB0BD72B00002F
:1007BC000A128A1174260A128A110B30FB00263099
:1007CC00FA005D30F900F90BE92BFA0BE92BFB0B66
:1007DC00E92BF02B080004307C067D04031DF82B5C
:1007EC000130052C03307C067D04031DFF2B0A30E1
:1007FC00052C02307C067D04031D0C2C3C3083122E
:10080C000313A6070318A70A0030172C7C037D04DA
:10081C00031D182C583083120313A6070318A70ABC
:10082C000230A7070930FB00E130FA00B230F900C2
:10083C00F90B1E2CFA0B1E2CFB0B1E2C00000A12A3
:10084C008A1174260A128A110B30FB002630FA002A
:10085C005D30F900F90B302CFA0B302CFB0B302CE3
:10086C00372C0800F601F31F422CF209F309F20AA7
:10087C000319F30AF601F60AF11F492CF009F109E4
:10088C00F00A0319F10A700871040319762CF501AA
:10089C00F50AF11B5D2C01300310F00DF10DFF3E3C
:1008AC00031D522C0130F4007408F5074F2C71080D
:1008BC007302031D632C70087202031C6B2C7008EE
:1008CC00F2027108031CF303F30201300310F10C64
:1008DC00F00CFF3E031D6C2C0130F502031D5D2C4A
:1008EC00760803197E2CF209F309F20A0319F30AAC
:1008FC007308F1007208F0000800F601F11F8D2C4E
:10090C00F009F109F00A0319F10AF601F60AF31FCE
:10091C00982CF209F309F20A0319F30A0130F400D6
:10092C007408F606F701F801700871040319CF2C4E
:10093C00F501F50AF11BAE2C01300310F00DF10D91
:10094C00FF3E031DA32C0130F4007408F507A02C06
:10095C0001300310F70DF80DFF3E031DAF2C71088D
:10096C007302031DBB2C70087202031CC42C70088C
:10097C00F2027108031CF303F30277140130031025
:10098C00F10CF00CFF3E031DC52C0130F502031DCC
:10099C00AE2C76080319D72CF709F809F70A0319B6
:1009AC00F80A7808F1007708F00008000A128A119A
:1009BC0008230A128A1177037804031DE92C831289
:1009CC00031306140800023077067804031DF22C7A
:1009DC008312031386140800033077067804031D72
:1009EC00FC2C8312031386140614080004307706BB
:1009FC007804031D052D831203130615080005301A
:100A0C0077067804031D0F2D8312031306140615A5
:100A1C000800063077067804031D192D8312031382
:100A2C00861406150800073077067804031D242D5C
:100A3C008312031306148614061508000830770673
:100A4C007804031D2D2D831203138615080009301D
:100A5C0077067804031D372D8312031306148615AD
:100A6C00080077087804031D08008312031306108E
:100A7C0086100611861108000A128A110F230A1219
:100A8C008A1177037804031D4F2D83120313061666
:100A9C000800023077067804031D582D83120313C7
:100AAC0086160800033077067804031D622D831226
:100ABC000313861606160800043077067804031D07
:100ACC006B2D831203130617080005307706780484
:100ADC00031D752D83120313061606170800063026
:100AEC0077067804031D7F2D8312031386160617D1
:100AFC000800073077067804031D8A2D8312031330
:100B0C000616861606170800083077067804031DAB
:100B1C00932D831203138617080009307706780487
:100B2C00031D9D2D831203130616861708007708E4
:100B3C007804031D08008312031306128612061391
:100B4C00861308000A128A1116230A128A117703D7
:100B5C007804031DB52D831203130714080002300B
:100B6C0077067804031DBE2D831203138714080027
:100B7C00033077067804031DC82D831203138714E2
:100B8C0007140800043077067804031DD12D831256
:100B9C00031307150800053077067804031DDB2DB9
:100BAC008312031307140715080006307706780420
:100BBC00031DE52D83120313871407150800073056
:100BCC0077067804031DF02D831203130714871482
:100BDC0007150800083077067804031DF92D8312D9
:100BEC00031387150800093077067804031D032EBC
:100BFC008312031307148715080077087804031D64
:100C0C0008008312031307108710071187110800BF
:100C1C000A128A111D230A128A1177037804031D04
:100C2C001B2E831203130716080002307706780474
:100C3C00031D242E83120313871608000330770636
:100C4C007804031D2E2E8312031387160716080033
:100C5C00043077067804031D372E8312031307170D
:100C6C000800053077067804031D412E8312031308
:100C7C00071607170800063077067804031D4B2E5D
:100C8C0083120313871607170800073077067804BA
:100C9C00031D562E83120313071687160717080019
:100CAC00083077067804031D5F2E83120313871711
:100CBC000800093077067804031D692E831203138C
:100CCC0007168717080077087804031D080083129D
:100CDC0003130712871207138713080083120313D9
:100CEC002708803AFF008E307F02031D7F2E1030C4
:100CFC0026020318852E83120313A71F8E2E831230
:100D0C000313A601A7010A128A1124230A128A11BD
:100D1C000A30F0000030F100831203132708F300AF
:100D2C002608F2000A128A1183240A128A11710809
:100D3C0083120313A5007008A4003C30F0000030AF
:100D4C00F1002708F3002608F2000A128A11832406
:100D5C000A128A11710883120313A3007008A200EF
:100D6C005830F0000230F1002708F3002608F2009A
:100D7C000A128A1183240A128A117108831203132E
:100D8C00A1007008A0000A30F0000030F100270824
:100D9C00F3002608F2000A128A1138240A128A116A
:100DAC007108F8007008F7000A128A110E260A1250
:100DBC008A110630F0000030F1008312031325086D
:100DCC00F3002408F2000A128A1138240A128A113C
:100DDC007108F8007008F7000A128A11A8250A1287
:100DEC008A110A30F0000030F1008312031323083B
:100DFC00F3002208F2000A128A1138240A128A110E
:100E0C007108F8007008F7000A128A1142250A12BC
:100E1C008A110A30F0000030F1008312031321080C
:100E2C00F3002008F2000A128A1138240A128A11DF
:100E3C007108F8007008F7000A128A11DC24080007
:100E4C00831603138601831203138601831603137F
:100E5C008501831203138501831603138701831203
:100E6C0003138701FF30831603138800FF308312AE
:100E7C0003138800662F0A128A1174260A128A112B
:100E8C000A128A1137230A128A110C3083120313A7
:100E9C00AA00AB30A900F930A800A80B532FA90B5E
:100EAC00532FAA0B532F013083120313A6070318D9
:100EBC00A70A0030A7070A128A1174260A128A118F
:100ECC0003108312031308180314003003180130A5
:100EDC00A800A9012808F0002908F1000A128A11BB
:100EEC004B230A128A11003A031D412F831203135C
:100EFC0005100310081A0314003003180130A80061
:100F0C00A9012808F0002908F1000A128A114B23C4
:100F1C000A128A11003A0319982F0A128A11872390
:100F2C000A128A1103108312031388190314003058
:100F3C0003180130A800A9012808F0002908F100C5
:100F4C000A128A114B230A128A11003A0319B32F81
:100F5C000A128A1164230A128A11031083120313D2
:100F6C0008190314003003180130A800A90128083F
:100F7C00F0002908F1000A128A114B230A128A1177
:100F8C00003A0319CE2F0A128A11AA230A128A11C7
:100F9C000310831203138818031400300318013054
:100FAC00A800A9012808F0002908F1000A128A11EA
:100FBC004B230A128A11003A0319662F0A128A115E
:100FCC00F1230A128A11662F0A128A1106230A12B9
:100FDC008A11FC000A128A110723FD00A001A1014D
:100FEC00A201A301A401A501A601A70183010A1274
:040FFC008A11262F01
:02400E00F23F7F
:00000001FF
